:10400000FC7F00202D3001005990000071900000CD
:1040100000000000000000000000000000000000A0
:10402000000000000000000000000000153001004A
:104030000000000000000000153001008130010088
:104040001530010015300100153001001530010058
:104050001530010015300100858B0000193001007A
:1040600015300100F9100100153001001530010074
:104070001530010015300100091101001530010053
:104080001530010015300100153001001530010018
:104090000D08010015300100153001001530010038
:1040A00015300100153001001530010015300100F8
:1040B0000000000010B5064C2378002B07D1054BFB
:1040C000002B02D0044800E000BF0123237010BD84
:1040D000800100200000000064C00100044B10B506
:1040E000002B03D00349044800E000BF10BDC046C8
:1040F000000000008401002064C0010010B504002D
:10410000034B0833036000F0D3FD200010BDC04610
:10411000F077010010B50400FFF7F0FF20000FF06A
:1041200033F8200010BD4B6843600B8903818B7A04
:1041300083720C228B5E83810E228B5EC3810B699E
:1041400003618B8A8382CB8AC3828B6983610B7FF5
:104150000377CB8B0131C383CA7F431CDA77704767
:10416000E9239B00C1507047EA239B00C150704770
:10417000EB239B00C1507047014BC1547047C046B0
:10418000A2030000E8239B00C1547047E8239B0072
:10419000C05C7047014BC1547047C046A10300008A
:1041A000EC239B00C058704730B51D00EE2314006F
:1041B0009B00C3181C605D60F0239B00C018039B2C
:1041C000049C0360446030BDF0B58FB0070001F07F
:1041D00077F90022002310F0E7FD002848D03800CE
:1041E00001F06EF90022C94B10F0E8FD12F0C6FA9A
:1041F0000100380000F0A3FF380001F064F900224C
:10420000002310F0D1FD00283CD0380001F05BF90C
:104210000022BE4B10F0D2FD12F0B0FA01003800BF
:1042200000F08FFFE9239B00FB58022B34D0032BB7
:104230003ED0012B00D022E10520BA240EF0DEFE94
:104240006400042803D104300EF0D8FE38553B5DDD
:10425000012B00D0A9E08020F96CBA6C00060B1885
:1042600000920193BA6CFB6C380000F07DFD9CE07D
:10427000380001F025F90022A44B11F037FF12F0AD
:104280007DFAB5E7380001F01EF900229F4B11F0CE
:104290002DFF12F073FAC1E7E823BA249B00FB5C00
:1042A0006400002BD3D008200EF0A8FE3855CEE7CE
:1042B000EE239B00FE1838003468756801F000F9A1
:1042C00002000B002000290011F010FF0022002343
:1042D00010F060FD34687568002800D1E3E0380014
:1042E00001F0EEF802000B002000290011F0FEFEA4
:1042F00004900791F0239B00FB1838001C685D6850
:10430000029301F0E0F802000B002000290011F0F8
:10431000EDFE0023002210F03DFD029B1C685D684D
:10432000002800D1CEE0380001F0CDF802000B00EB
:104330002000290011F0DAFE02000B000498079912
:1043400010F00EFD34687568002800D1E2E03800F6
:1043500001F0B6F80B0002002900200010F006FD65
:10436000029B1C685D68002800D1BBE0380001F0AA
:10437000AAF80B0002002900200010F0F7FCBA2375
:104380005B00002800D1AAE00722FA54EC239B002E
:10439000FB58002B03D05E4BFB5C002B6FD1BA2384
:1043A0005B00FB5C012B00D155E7BA2464003A5D49
:1043B000032A08D1BA6CFB6C00920193BA6CFB6CB7
:1043C000380000F0D1FC3B5D052B0BD18020BA6C8E
:1043D000FB6C000600920193F96CBA6C0B18380064
:1043E00000F0C2FCBA235B00FB5C072B0BD18022E0
:1043F000FB6C120699180B00BA6C380000920193FE
:10440000BA6C00F0B1FCBA235B00FB5C002B0BD153
:104410008020796C3A6C00060B18009201933800EA
:104420000022002300F0A0FCBA2464003A5D022AB6
:1044300008D100220023009201933A6C7B6C380073
:1044400000F092FC3B5D042B08D13B6C7C6C00229D
:10445000009301943800002300F086FCBA235B002F
:10446000FB5C062B0BD100220023802000920193DD
:10447000796C00060B183A6C380000F075FCEA23E2
:104480009B00FD58012D00D12EE1022D00D152E1FB
:10449000EB239B00FB58012B00D119E2022B00D12A
:1044A000A4E20FB0F0BD380001F00AF80B000200E2
:1044B0002900200011F01AFE80231B06CB1804905F
:1044C000079317E7380000F0FEFF0B0002002900F9
:1044D000200011F00BFE80231B06C9182CE70522D3
:1044E000FA5453E7380000F0EEFF0B0002002900F9
:1044F000200010F03BFCBA235B00002802D0012210
:10450000FA5443E70322FA5440E7C0460000E03F74
:10451000A1030000380000F0D3FF02000B002000D0
:10452000290011F0E3FD0022002310F033FC346871
:104530007568002842D0380000F0C2FF02000B006E
:104540002000290011F0D2FD04900791029B380051
:104550001C685D6800F0B7FF02000B002000290016
:1045600011F0C4FD0023002210F014FC029B1C6813
:104570005D68002831D0380000F0A5FF02000B0074
:104580002000290011F0B2FD02000B0004980799E9
:1045900010F000FC3468756800282ED0380000F058
:1045A0008FFF0B0002002900200010F0DFFBBA2370
:1045B0005B0000281ED00622FA54E7E6380000F01F
:1045C0007FFF0B0002002900200011F08FFD8023E7
:1045D0001B06CB1804900793B8E7380000F073FF70
:1045E0000B0002002900200011F080FD80231B0633
:1045F000C918C9E70222FA54C8E6380000F060FF83
:1046000002000B002000290011F070FD00220023A1
:1046100010F0C0FB34687568002846D0380000F000
:104620004FFF02000B002000290011F05FFD060083
:104630000491029B38001C685D6800F044FF020092
:104640000B002000290011F051FD0023002210F082
:10465000A1FB029B1C685D68002835D0380000F083
:1046600032FF02000B002000290011F03FFD020084
:104670000B003000049910F079FB002800D185E68A
:10468000F0239B00FB1838001C685D6800F01BFFDE
:104690000B0002002900200010F068FBBA235B0029
:1046A00000281ED00022FA5470E6380000F008FFFF
:1046B0000B0002002900200011F018FD80231B06CA
:1046C000CB1806000493B4E7380000F0FCFE0B00A2
:1046D00002002900200011F009FD80231B06C918E3
:1046E000C5E70422FA5451E605200EF087FCB84CC9
:1046F000042805D102380EF081FC002817D025606F
:104700003E00206812F070F87936FF360400300061
:104710000D0000F0BAFC02000B002000290011F08F
:1047200073FA02000B00300000F0B2FCB0E6012387
:104730005B422360E4E7EE239B00FB1838001C6813
:104740005D6800F0BDFE02000B002000290011F0A2
:10475000CDFCF0239B000400FB1838001A685B684E
:104760000D000292039300F0AEFE02000B000298CF
:10477000039911F0BBFC02000B00200029000CF093
:10478000A3FD944A944B11F0B1FC0290039102985E
:104790000399904A914B10F0FDFA002808D0029836
:1047A00003998C4A8D4B11F0A1FC02900391EEE726
:1047B000002202980399002310F0D8FA002808D0AC
:1047C00002980399834A854B10F0F8FA02900391FE
:1047D000EEE73E007936FF36300000F025FC7D4ADA
:1047E0007E4B10F0D7FA002805D07A4A7C4B300077
:1047F00000F04EFCEDE7300000F016FC0022002334
:1048000010F0B4FA002805D0724A744B300000F062
:104810003FFCF0E7300000F007FC040030000D0022
:1048200000F033FC220004900591029803992B00BC
:1048300011F05CFC4B009C46049A059B64466108A1
:1048400010F0A8FA002800D122E6300000F0ECFBBE
:10485000029A039B10F08AFA002817D0300000F06B
:10486000E3FB02000B000298039911F03FFC594A48
:104870005C4B10F07BFA00281FD0300000F005FCE4
:1048800002000B00300000F003FC01E6300000F0F5
:10489000CBFB029A039B10F07DFA002800D1F7E5CC
:1048A000300000F0C1FB029A039B11F01FFC494A43
:1048B0004C4B10F05BFA0028DFD0300000F0E5FB35
:1048C0000200802000060B18300000F0E1FBDFE55D
:1048D0003B00C133FF330293E8239B00FB18029C8B
:1048E0000493200000F070FB0790002837D0049B51
:1048F0006034A342F5D1029800F066FB002820D076
:104900003E00380000F0DCFD7936FF3602000B0077
:10491000300000F08CFB040038000D0000F0D3FDE7
:1049200002000B00300000F098FB11F027FF290077
:104930000600200011F022FF32000100029800F072
:104940007DFA029B60330293029A049B9342D2D178
:10495000254A13680133FF2B36D01360A1E5224EA0
:104960003368142BC7DD3D00380000F0A9FD793510
:10497000FF3502000B00280000F059FB0890099158
:10498000380000F0A0FD02000B00280000F065FBDD
:104990000A900B91280000F047FB0C900D910A98AB
:1049A0000B9911F0EBFE05000898099911F0E6FE4D
:1049B0000C9A0D9B01000092019320002A0000F048
:1049C000E5FA079B336096E71523136069E5C04657
:1049D0000C000020182D4454FB21F93FFB21194005
:1049E000FB2119C0FB210940040000203B00C1331A
:1049F000FF330293E8239B00FB18029C04932000E2
:104A000000F0E2FA079000283ED0049B6034A342F5
:104A1000F5D1029800F0D8FA002820D03E003800E6
:104A200000F04EFD7936FF3602000B00300000F03A
:104A3000FEFA040038000D0000F045FD02000B00F6
:104A4000300000F00AFB11F099FE2900060020005A
:104A500011F094FE32000100029800F0EFF9029B81
:104A6000049A603302939342D3D1264A13680133E8
:104A70001360282B00DC14E5012023497854FF2B18
:104A800000D00EE5EA3B68E70B200EF0B7FA1D4EAA
:104A9000143033689842BCDA1B4BFB5C002BB8D057
:104AA0003D00380000F00CFD7935FF3502000B00A9
:104AB000280000F0BCFA08900991380000F003FDCE
:104AC00002000B00280000F0C8FA0A900B912800A1
:104AD00000F0AAFA0C900D910A980B9911F04EFE75
:104AE00005000898099911F049FE0C9A0D9B0100E8
:104AF0000092019320002A0000F048FA079B3360DF
:104B000087E7C04608000020A2030000F0B50400BB
:104B10008BB000F0C7FA4A4B4A4A0833236023009F
:104B200050331A80BA2300260222474F5B00E2541A
:104B3000200032003B0000F0BDFC32003B002000B2
:104B400000F0BBFC414F01A8390008F0B3FC200085
:104B500001A95430FFF7E7FA01A808F059FA3C4ED2
:104B600001A8310008F0A6FC200001A97830FFF769
:104B7000DAFA01A808F04CFA364D01A8290008F02D
:104B800099FC200001A99C30FFF7CDFA01A808F09C
:104B90003FFA314901A808F08DFC200001A9C0307E
:104BA000FFF7C1FA01A808F033FA390001A808F0AC
:104BB00081FC200001A9E430FFF7B5FA01A808F054
:104BC00027FA310001A808F075FC2000093001A97E
:104BD000FF30FFF7A8FA01A808F01AFA290001A887
:104BE00008F068FC20002D3001A9FF30FFF79BFA88
:104BF00001A808F00DFA184901A808F05BFC200094
:104C0000513001A9FF30FFF78EFA01A808F000FA31
:104C1000E922002300209200A3500432A3500F4940
:104C20000432A3500C3AA354206461640A2120008A
:104C30001032A1500A4AA3540A4AA3540BB0F0BD43
:104C4000F0770100E4D8FFFF00003440F674010063
:104C5000F4750100F8730100F27601000000E03FF6
:104C6000A1030000A203000010B50400034B0833A9
:104C7000036000F005FC200010BDC0463078010044
:104C800010B50400034B08330360FFF7EDFF20006D
:104C900010BDC0462078010010B50400034B083356
:104CA0000360FFF7E1FF200010BDC046007801005F
:104CB000144B70B5083303600600E8230400C136C6
:104CC0009B00FF36C518AE4205D0603D2B6828001A
:104CD0001B689847F7E7200025007930FF30260051
:104CE000FFF7DAFF75355436FF35AE4205D0243D67
:104CF0002B6828009B689847F7E72000FFF7B4FF70
:104D0000200070BD1078010010B50400FFF7ACFF63
:104D100020000EF039FA200010BD10B50400FFF796
:104D2000AFFF20000EF030FA200010BD10B50400D7
:104D3000FFF7B2FF20000EF027FA200010BD10B5DB
:104D40000400FFF7B5FF20000EF01EFA200010BD92
:104D500010B5040000F09CFB024B200008332360D8
:104D600010BDC04630780100D0B516001F00040009
:104D700000F0A6FB32003B0010F020F802000B0010
:104D8000200000F097FB200000F09DFB049A059B9B
:104D900010F014F802000B00200000F08EFBD0BDD4
:104DA000806A7047D0B50400FFF7D2FF114B220094
:104DB0000833236080210023002058321380C90566
:104DC0002C3A137020646164210001222D3122638A
:104DD0000B7023000026084F2E331A70200032007B
:104DE0003B0000F067FB32003B00200000F065FB59
:104DF0002000D0BD20780100000024C0030070B561
:104E00002C331B780400002B14D003000A4E5833B7
:104E10001988300007F03CFB200000F057FB05002C
:104E2000200000F061FB3022A35E29B202B2300004
:104E300006F0ABFF70BDC046402600200300F0B571
:104E40002C331B7885B004001600002B68D00500B9
:104E50002E352B78002B09D0080011F0C5FCA0647A
:104E6000E164300011F0C0FC2065616500232B7007
:104E7000226C636C00920193A26BE36B100019002B
:104E8000029203930CF092F9009A019B10F0BCFE81
:104E9000A26CE36C0FF092FF06000F0002980399DA
:104EA000A664E7640CF0C8F9009A019B10F0ACFE10
:104EB00002000B00206D616D11F018F900222065D1
:104EC00061650023300039000FF06EFF00222D4B8A
:104ED000002845D0300039000FF070FF11F04EFC73
:104EE00011F082FC02000B00200000F0E3FA266DB6
:104EF000676D00220023300039000FF055FF0022BB
:104F0000204B002835D0300039000FF057FF11F04A
:104F100035FC11F069FC02000B00200000F0CDFA16
:104F200023002D3300931B78002B17D0230000267D
:104F300000250122144F2C339A701D7032003B0063
:104F4000200000F0B7FA3B003200200000F0B5FA74
:104F5000009BA664E764266567651D7005B0F0BD1B
:104F60003000390011F0C2F811F008FC11F03CFCDF
:104F7000B8E73000390011F0B9F811F0FFFB11F07B
:104F800033FCC8E70000E03F000024C0030070B518
:104F9000150001222C3304001A70080011F024FCC3
:104FA00002000B00200000F085FA280011F01CFC24
:104FB00002000B00200000F080FA049A059BA26317
:104FC000E36370BD006B70472C30007870472C3065
:104FD000017070472D3001707047000010B504005B
:104FE000FFF7B6FE0B4B0622083323600023226234
:104FF0000948053A09496262A262A21CA361E36101
:1050000020636163D387064A064B2000A263E363F3
:1050100010BDC04600780100182D4454FB211940F2
:105020009A9999999999A93F416B006B7047D3B5AB
:105030000400416B006B16001F000CF0B7F80090E5
:105040000191206A11F0D0FB009A019B10F0DCFD69
:1050500032003B000FF0B2FEDCBDD3B50400416B63
:10506000006B009201930CF0E7F806000F00206A35
:1050700011F0BAFB32003B0010F0C6FD02000B003D
:105080000098019911F032F8DCBDC16B806B70475C
:1050900010B50400416B006B0FF090FE206361635C
:1050A00010BD000070B5040026002500FFF750FE7B
:1050B000194B7536083323605435FF3628002435E4
:1050C00008F060F8B542F9D120007930FF30FFF7E1
:1050D00085FF2500E823C1359B00FF35E618280031
:1050E0006035FFF75FFEB542F9D10B2222626262A2
:1050F0002200052309495032A361E3611180002297
:10510000A363043BA362064B200022646364054A48
:10511000054BA264E36470BD10780100E4D8FFFF82
:105120000000F03FCD3B7F669EA0E63F806B70475E
:10513000006B7047406B70472C30007870470163FC
:105140007047416370472C3001707047BA235B0091
:10515000C1547047002906D17930224A224BFF30D2
:10516000026343637047012906D179301D4A1F4B02
:10517000FF3002634363F5E7022906D100220023D2
:105180007930FF3002634363ECE7032906D17930BD
:10519000144A174BFF3002634363E3E7042906D147
:1051A0007930104A134BFF3002634363DAE7052975
:1051B00006D17930104A114BFF3002634363D1E7C7
:1051C000062906D17930074A0D4BFF30026343634D
:1051D000C8E70729C6D17930074A0A4BFF30026376
:1051E0004363BFE7182D4454FB21F93FFB21E93FFE
:1051F000FB21E9BFFB21F9BFD221337F7CD902C05B
:10520000FB2109407CD90240F0B50C0006001500D6
:10521000831C89B0D98F324807F03AF923B206933C
:10522000306A2BB2079311F0DFFA326B736B029086
:10523000039110001900049205930BF0B7FF0200D0
:105240000B000298039910F0DFFC002200230600F7
:105250000F000FF0A9FD0022224B00282FD03000B4
:1052600039000FF0ABFD11F089FA80B204190498EF
:1052700005990BF0E1FF02000B000298039910F072
:10528000C3FC0022002306000F000FF08DFD24B2A6
:10529000ADB20022134B002819D0300039000FF0B6
:1052A0008DFD11F06BFA80B22D1A2DB200952300FE
:1052B000079A06990A4806F0FEFD09B0F0BD3000D5
:1052C000390010F013FF11F059FA80B2CEE7300028
:1052D000390010F00BFF11F051FA80B2E4E7C0463C
:1052E000402600200000E03FBA23F7B55B00040031
:1052F000C05C624D072813D80FF098FB045463720A
:105300008190A0B0200000F0E1F80600200000F03D
:10531000EBF8230002B231B25433280008F026FA29
:10532000230050331988280007F0B2F8200000F05D
:10533000C7F8060020000F0000F0C5F83822A35E71
:10534000009311F01BFA390003B23000019311F001
:1053500015FA009B019A01B2280006F016FD200004
:1053600000F0AEF8060020000F0000F0ACF811F0DD
:1053700005FA39000500300011F000FA01002000A4
:1053800079302A00FF302500FFF73EFFE823C135C2
:105390009B00FF35E41828006035FFF72FFDAC4275
:1053A000F9D1F7BD200000F091F80600200000F0D0
:1053B0009BF8230002B231B27833280008F0D6F906
:1053C000AEE7200000F082F80600200000F08CF824
:1053D000230002B231B29C33280008F0C7F99FE7DE
:1053E000200000F073F80600200000F07DF8230094
:1053F00002B231B2C033280008F0B8F990E72000BB
:1054000000F064F80600200000F06EF8230002B2FD
:1054100031B2E433280008F0A9F981E7200000F058
:1054200055F80600200000F05FF82300093302B2AF
:1054300031B2FF33280008F099F971E7200000F03D
:1054400045F80600200000F04FF823002D3302B28B
:1054500031B2FF33280008F089F961E7200000F03D
:1054600035F80600200000F03FF82300513302B267
:1054700031B2FF33280008F079F951E740260020C7
:10548000704710B504000DF07FFE200010BD000035
:10549000074B00220833036000238260C36002616F
:1054A000436100238361C361013303624362704738
:1054B000407801008260C3607047026143617047B9
:1054C000C1688068704741690069704710B5040081
:1054D000806911F089F902000B00A068E16810F002
:1054E00005FE11F04BF910BD10B50400C06911F0B4
:1054F0007BF902000B002069616910F0F7FD11F0E3
:105500003DF910BD10B50400034B08330360FFF7ED
:10551000CFFB200010BDC046487C010010B5040040
:10552000FFF7F0FF20000DF02FFE200010BD00005F
:10553000F0B58BB00400FFF7C3FF002200230FF08B
:1055400033FC002800D15FE12000FFF7B9FF002203
:10555000CC4B0FF033FC11F011F901002000FFF7E4
:10556000EEFD2000FFF7AFFF002200230FF01CFC30
:10557000002800D152E12000FFF7A5FF0022C14B17
:105580000FF01CFC11F0FAF801002000FFF7D9FD24
:10559000BD4E00220421300003F0E6FD002800D0BB
:1055A00018E1A36A03219AB2300003F0DDFD002860
:1055B00019D0A36A02219AB2300003F0D5FD002869
:1055C00011D0BA235B00E25C012A00D030E18020D8
:1055D000E16CA26C00060B18009201932000A26CF3
:1055E000E36CFFF7C1FBA36A00219AB2300003F01D
:1055F000BBFD002816D0A36A02219AB2300003F046
:10560000B3FD00280ED0BA235B00E25C032A00D071
:1056100011E1A26CE36C200000920193A26CE36C98
:10562000FFF7A2FBA36A00219AB2300003F09CFDB1
:10563000002819D0A36A01219AB2300003F094FD2A
:10564000002811D0BA235B00E25C052A00D0F5E007
:105650008020A26CE36CE16C0006009201930B18B1
:10566000A26C2000FFF780FBA36A03219AB23000EE
:1056700003F07AFD002819D0A36A01219AB2300004
:1056800003F072FD002811D0BA235B00E25C072A08
:1056900000D0D6E08022E36C120699180B00A26CB1
:1056A000200000920193A26CFFF75EFBA36A032126
:1056B0009AB2300003F058FD00281ED000220121CC
:1056C000300003F051FD021E17D10221300003F01B
:1056D0004BFD002811D1BA235B00E25C002A00D008
:1056E000B2E08020616C226C00060B1800920193DE
:1056F000200000220023FFF737FBA36A02219AB2A1
:10570000300003F031FD00281BD0032100223000BF
:1057100003F02AFD011E14D10200300003F024FD25
:1057200000280ED1BA235B00E25C022A00D08DE093
:1057300000220023200000920193226C636CFFF78B
:1057400013FBA36A00219AB2300003F00DFD00287C
:105750001AD000220121300003F006FD021E13D1F1
:105760000221300003F000FD00280DD1BA235B00B8
:10577000E25C042A6DD1226C636C200000920193DC
:1057800000220023FFF7F0FAA36A01219AB2300049
:1057900003F0EAFC00281DD003210022300003F0B2
:1057A000E3FC011E16D10200300003F0DDFC0028EE
:1057B00010D1BA235B00E25C062A4DD18020002282
:1057C0000023616C0006009201930B18226C2000EC
:1057D000FFF7CAFA00220421300003F0C5FC0028BC
:1057E00000D1AFE025007935FF352800FFF71CFC1C
:1057F000002200230FF0BAFA002830D0234A244BAD
:105800002800FFF745FCEDE72000FFF759FE0022D6
:105810001C4B10F06BFC10F0B1FF9EE62000FFF770
:1058200052FE0022174B10F061FC10F0A7FFABE610
:105830000122E254D7E60322E254F3E60522E254C1
:1058400012E70722E25431E7E05456E70222E2541D
:1058500077E70422E25497E70622E254BAE72800E9
:10586000FFF7E2FB4B009C466746084A084B790865
:105870000FF090FA00280FD0044A064B2800FFF7DB
:1058800007FCECE70000E03F30260020182D4454D0
:10589000FB211940FB2119C02800FFF781FA0321E1
:1058A00082B2300003F060FC00282ED02800FFF701
:1058B000BBFB8D4A8D4B0FF059FA002808D0280009
:1058C000FFF7E3FB02000B002800FFF7E1FB39E0E4
:1058D0002800FFF7A9FB864A864B0FF05BFA0028E9
:1058E000EDD12800FFF7A0FB814A824B0FF03EFA72
:1058F000002827D02800FFF7C8FB02008020000600
:105900000B182800FFF7C4FB1CE02800FFF748FA3B
:10591000012182B2300003F027FC07002800002F8D
:1059200061D0FFF781FB704A734B0FF01FFA00281C
:10593000C5D12800FFF778FB6B4A6F4B0FF02AFAAE
:105940000028D7D10521300003F0F4FB00280FD048
:105950002500E823C1359B00FF35E6182800FFF736
:1059600033FB0390002800D185E06035AE42F5D1CD
:10597000E82325009B00C135E318FF350493280078
:10598000FFF722FB002821D02000FFF799FD0B0034
:1059900021007931FF31020008000391FFF747FB36
:1059A000060020000F00FFF78EFD02000B00039899
:1059B000FFF753FB10F0E2FE39000390300010F0C7
:1059C000DDFE039A01002800FFF738FA049B6035DA
:1059D000AB42D4D1494A13680133FF2B00D180E098
:1059E00013600BB0F0BDFFF7DBF9390082B2300075
:1059F00003F0BAFB00281ED02800FFF715FB3A4A37
:105A00003A4B0FF0B3F9002800D073E72800FFF7F6
:105A10000BFB374A374B0FF0A9F9002800D04EE7AF
:105A20002800FFF701FB324A324B0FF0B3F9002890
:105A300000D187E75EE72800FFF7B2F9022182B2C2
:105A4000300003F091FB002800D17BE72800FFF72E
:105A5000EBFA254A284B0FF089F9002800D049E7D6
:105A60002800FFF7E1FA204A234B0FF093F90028B2
:105A700000D167E723E7214F3B68142B00DC77E771
:105A800026002000FFF71CFD7936FF3602000B00D0
:105A90003000FFF7CCFA049005912000FFF713FDCA
:105AA00002000B003000FFF7D8FA06900791300093
:105AB000FFF7BAFA089009910698079910F05EFE70
:105AC00006000498059910F059FE089A099B0100F8
:105AD0000092019328003200FFF758FA039B3B60C5
:105AE00046E715237CE7C046182D4454FB21F93FB7
:105AF000D221337F7CD91240FB21094010000020C5
:105B0000F0B504008BB0FFF7CDFA424B424A0833A0
:105B10002360230050331A80BA23022200265B0040
:105B20003E4FE25400212000FFF70DFB32003B0006
:105B30002000FFF7BFFC32003B002000FFF7BDFC58
:105B4000374F01A8390007F0B5FC200001A95430F7
:105B5000FEF7E9FA01A807F05BFA324E01A831001E
:105B600007F0A8FC200001A97830FEF7DCFA01A8B4
:105B700007F04EFA2C4D01A8290007F09BFC2000ED
:105B800001A99C30FEF7CFFA01A807F041FA274996
:105B900001A807F08FFC200001A9C030FEF7C3FA6E
:105BA00001A807F035FA390001A807F083FC2000AE
:105BB00001A9E430FEF7B7FA01A807F029FA31008D
:105BC00001A807F077FC2000093001A9FF30FEF79B
:105BD000AAFA01A807F01CFA290001A807F06AFC3C
:105BE00020002D3001A9FF30FEF79DFA01A807F033
:105BF0000FFA0E4901A807F05DFC2000513001A901
:105C0000FF30FEF790FA01A807F002FA20000BB06F
:105C1000F0BDC046487C010039440000000020402F
:105C20004E7901004C7A0100507801004A7B010056
:105C300010B50400FFF72CFC2000074B2830083378
:105C4000236007F09FFA0123A361E3610233200080
:105C50002362636210BDC046B47C010070B50400CD
:105C60000800150010F0C0FD02000B002000FFF737
:105C700021FC280010F0B8FD02000B002000FFF707
:105C80001CFC70BD10B50400054B083303602830C0
:105C900007F0BEF92000FFF7F3FB200010BDC0465F
:105CA000B47C010010B50400FFF7ECFF20000DF0FC
:105CB0006BFA200010BD000010B50400034B083340
:105CC0000360FFF7DFFF200010BDC046D47C010059
:105CD00010B50400FFF7F0FF20000DF055FA20008A
:105CE00010BD000010B50400034B08330360FFF73C
:105CF000C9FF200010BDC046C47C010010B50400DF
:105D0000FFF7F0FF20000DF03FFA200010BD00006B
:105D100010B50400034B08330360FFF7B3FF200006
:105D200010BDC046E47C010010B50400FFF7F0FF91
:105D300020000DF029FA200010BD000010B504006D
:105D40008AB0FFF775FF094B09490833236001A8A2
:105D500007F0B0FB200001A92830FEF7E4F901A804
:105D600007F056F920000AB010BDC046D47C0100EF
:105D7000947C010010B504008AB0FFF759FF094B6D
:105D800009490833236001A807F094FB200001A90A
:105D90002830FEF7C8F901A807F03AF920000AB048
:105DA00010BDC046C47C0100767C010010B5040023
:105DB0008AB0FFF73DFF094B09490833236001A86A
:105DC00007F078FB200001A92830FEF7ACF901A804
:105DD00007F01EF920000AB010BDC046E47C0100A7
:105DE000587C010070B50400FFF770FB050020002F
:105DF000FFF77AFB230002B229B22833014807F0EB
:105E0000B5FC70BD4026002070B50400134B08336C
:105E10000360134BC518134BC6182800FEF776FE17
:105E2000F2239B00ED18AE42F7D10F4BE018FFF7BD
:105E300067FE0E4BE018FFF781FF0D4BE018FFF7F0
:105E400099FF0C4BE018FFF7B1FF00220A4B20002E
:105E5000E2500A4B0232E25470BDC046BC820100DF
:105E6000080C0000281B0000381B0000D81E000092
:105E7000281F0000781F00002C1B0000301B0000B2
:105E8000014BC1507047C0462C1B0000014BC05C49
:105E90007047C046301B00000021F0B504009A4B4B
:105EA00087B0C154994BC5182800FFF74CF928005A
:105EB0000221FFF74BF902212800FFF74BF92800D8
:105EC0000022934BFFF7F6FA914B28000022FFF7D0
:105ED000F4FA904BE518904BE618280000228F4BFF
:105EE000FFF7E8FA280000228C4BFFF7E6FA2800BB
:105EF00000216035FFF76BF8B542EED1884A231DCB
:105F0000A018884A11001A605A6008338342FAD1F7
:105F10008023C0221B011201E318A21819605960E6
:105F200008339342FAD1804B0121E018FFF70BF9B7
:105F3000FD231B01E0180121FFF705F97B4B01212F
:105F4000E018FFF700F9BB235B010121E018FFF720
:105F5000FAF8C02200257249120165500291A5503D
:105F60000392734E7349A3599B0059580978A9426B
:105F700041DD032300276B4301330193A3596D4A8D
:105F80009B0099584B78BB4233DDFBB2EAB26A48BA
:105F9000049305F0C5FC00280CD0029B0199E3583E
:105FA000DA00A21851600321794301319160029A0D
:105FB0000133A350A359614899000958FBB2EAB2D2
:105FC0005D4805F0ADFC002811D0039B0199E35812
:105FD0005A1CFF32D2001151DA005949A218521846
:105FE0000321794301311160039A0133A350013732
:105FF000C4E70135B5E75349534A5B5805921B780E
:10600000A350524BE31802930123019300230393FF
:10601000059B039AE3580493934273DD029D00218C
:10602000C13DFF3D2800FFF78EF828000021FEF754
:10603000A3F8A359434F9B00DB59019A985C10F0D9
:106040000DFC02000B002800FFF734FAA359019A57
:106050009B00DB599B18587810F000FC02000B00E5
:106060002800FFF72AFAA359019A9B00DB59280060
:106070009B189978FFF76AF8A359019A9B00DB599E
:1060800028009B18D978FFF765F8A359019A9B005F
:10609000DB5928009B181979FEF762F8A359019A79
:1060A0009B00DB5928009B185979FEF75DF8A3592E
:1060B000019A9B00DB5928009B189979FEF758F844
:1060C000029F029DE137FF3728000022134BFFF7A4
:1060D000F1F928000022114BFFF7EFF92800002109
:1060E0006035FEF774FFAF42EED1F2229200944683
:1060F000039B01330393029B63440293019B073389
:10610000019385E707B0F0BD301B0000381B00008D
:1061100000002040F81C0000D81E0000000024C031
:10612000FC0700000F270000080C00009813000077
:106130002C1B0000E480010040260020B87E0100F6
:1061400004080000F47C0100281B0000C80D0000BA
:10615000F0B50400002685B0234D6359B34220DD1D
:10616000F2239B007343214AA518ED182800FEF77F
:10617000E3FF002813D11E4BE7183800FFF7A0F902
:10618000029003913800FFF79EF9029A039B00905A
:1061900001912800FEF708F82800FEF715F80136EF
:1061A000DAE7002637006359B3420CDDF2239B0087
:1061B00073430E4A0136A018C018FEF7BDFF431EF8
:1061C00098413F18EFE7BB4204D10122094BE2544A
:1061D00005B0F0BD064BE018FEF7AEFF0028F7D083
:1061E0000222044BE254F3E7281B0000080C0000D5
:1061F000381B0000301B0000F0B50700002485B0FC
:10620000374A3849BB5803929B005B581B78A3421E
:106210001CDC00263C1D344BFB58B3423BDC802386
:1062200000261B01FC18C0231B01FB580193B3423D
:106230003EDD2E4B6268FD1821682800FFF70EFD39
:106240002800FFF7CFFD01360834ECE703230025D3
:10625000634301330193039B224AFB5802939B0043
:10626000D1584B78AB4214DDEBB2E2B2204805F0D6
:1062700057FB00280BD003226A431E4B0132FE1845
:1062800030000199FFF7EAFC3000FFF7ABFD013564
:10629000E1E70134B4E7184B6268FD182168280073
:1062A000FFF7DCFC2800FFF79DFD01360834B2E75C
:1062B000F2260025B600114BFB58AB420EDD330031
:1062C0006B430F4ABC18E4182000FEF735FF002886
:1062D00002D12000FFF708F80135ECE705B0F0BD6A
:1062E0002C1B0000A8820100FC070000781F0000A2
:1062F00040260020D81E0000281F0000281B000098
:10630000080C000003000433F0B51D0000269BB00C
:1063100005900B93E64B059A1893D258059BB24211
:1063200054DC80221201944663440A931D0000232A
:106330000693C022059B12019B58069A089393422C
:1063400000DC84E0DB4A059B9C182000FFF7B8F8CE
:10635000089009912000FFF7B6F8060020000F0012
:10636000FEF7E4FE390003B230000C9310F006FA99
:1063700006B20898099910F001FA02230293042248
:10638000AB5E01B201930022AB5ECB4800933200BA
:106390000C9B02F007FF002813D02000FEF7C8FE78
:1063A00010F022FA02000B002000FFF783F8200013
:1063B000FEF7C0FE10F018FA02000B002000FFF7F5
:1063C0007CF8069B083501330693B2E7B94A9C185E
:1063D0002000FFF775F8069007912000FFF773F88B
:1063E000089009912000FEF7A1FE03B208980999D0
:1063F0000A9310F0C3F907B20698079910F0BEF996
:10640000022302930422AB5E01B201930022AB5E31
:10641000A94800933A000A9B02F0C4FE002813D05A
:106420002000FEF785FE10F0DFF902000B002000CF
:10643000FFF740F82000FEF77DFE10F0D5F90200CE
:106440000B002000FFF739F80136083562E7002518
:106450009A4B059A0C93D258AA4263DDF2239B0013
:106460006B43059A96495718FF183800FEF764FEEB
:10647000002855D18F4A059B9C182000FFF720F873
:10648000069007912000FFF71EF808900991200060
:10649000FEF74CFE06003800FFF712F80C900D9145
:1064A0003800FFF710F80E900F913800FEF73EFE0F
:1064B00007000898099910F061F903B20698079946
:1064C000089310F05BF93FB203B20E980F99069350
:1064D000029710F053F900B201900C980D9910F04A
:1064E0004DF936B200B200903300089A069972480E
:1064F00002F058FE002813D02000FEF719FE10F01D
:1065000073F902000B002000FEF7D4FF2000FEF715
:1065100011FE10F069F902000B002000FEF7CDFF1C
:10652000013595E7002306930C9A059B9B58069A24
:106530000893934200DCD1E1614AF2249446059B22
:10654000A40063440E93069B5C430E9BE41820005A
:10655000FEF7F2FD051E00D0BCE12000FDF716FE9F
:10656000002803D029002000FDF70CFE00230B9D1E
:106570000893189A059B9B58089A1093934245DDFF
:106580002000FEF79DFF109011912000FEF79BFF69
:10659000060020000F00FEF7C9FD013003B23900EC
:1065A0003000129310F0EAF806B21098119910F02A
:1065B000E5F8022302930422AB5E01B201930022AC
:1065C000AB5E3D4800933200129B02F0EBFD0028C9
:1065D00017D02000FEF7ACFD10F006F902000B000A
:1065E0002000FEF767FF2000FEF7A4FD10F0FCF886
:1065F00002000B002000FEF760FF01212000FDF7E4
:10660000C1FD089B083501330893B2E700230A9DBA
:106610000893C022059B12019B58089A10932000F2
:1066200093424FDDFEF74CFF109011912000FEF7D2
:106630004AFF060020000F00FEF778FD013003B28C
:1066400039003000129310F099F806B210981199A1
:1066500010F094F8022302930422AB5E01B201937E
:106660000022AB5E144800933200129B02F09AFDA8
:10667000002817D02000FEF75BFD10F0B5F80200EF
:106680000B002000FEF716FF2000FEF753FD10F070
:10669000ABF802000B002000FEF70FFF01212000E5
:1066A000FDF770FD089B083501330893B1E7C0463C
:1066B000FC070000381B000061270020281B000099
:1066C000080C0000FEF7FCFE089009912000FEF780
:1066D000FAFE109011912000FEF728FDBB4A059BA1
:1066E00006009D182800FEF7EBFE1290139128007B
:1066F000FEF7E9FE149015912800FEF717FD07003C
:106700001098119910F03AF803B20898099910936B
:1067100010F034F83FB203B2149815990893029719
:1067200010F02CF800B201901298139910F026F88E
:10673000013600B236B200903300109A0899A4488E
:1067400002F030FD002817D02000FEF7F1FC10F019
:106750004BF802000B002000FEF7ACFE2000FEF715
:10676000E9FC10F041F802000B002000FEF7A5FE46
:1067700001212000FDF706FD2000FEF7A1FE089094
:1067800009912000FEF79FFE109011912000FDF767
:1067900007FD06002800FEF793FE129013912800D3
:1067A000FEF791FE149015912800FEF7BFFC07003C
:1067B000109811990FF0E2FF03B20898099910930D
:1067C0000FF0DCFF3FB205B21498159902970FF055
:1067D000D5FF00B20190129813990FF0CFFF36B297
:1067E00000B2009029003300109A794802F0DAFCD8
:1067F000011E00D001212000FDF7CCFC0027059BE5
:106800000C9A9B580893BB4264DD069BBB425FD049
:106810002000FEF755FE089009912000FEF753FE78
:10682000F225109011912000FEF780FCAD007D4311
:106830000E9B0600ED182800FEF742FE1290139101
:106840002800FEF740FE149015912800FEF76EFC1C
:106850001690109811990FF091FF03B208980999BA
:1068600010930FF08BFF58226B469B1800229B5E03
:1068700005B21498159902930FF080FF00B20190B1
:10688000129813990FF07AFF013600B236B20090D9
:106890003300109A29004E4802F084FC002817D0DB
:1068A0002000FEF745FC0FF09FFF02000B002000C8
:1068B000FEF700FE2000FEF73DFC0FF095FF020002
:1068C0000B002000FEF7F9FD01212000FDF75AFC26
:1068D000013794E7069B0133069325E6059B3D4A65
:1068E00006939F18059A3C4B9446634419930025E0
:1068F0000B9C059B189A9B580893AB422EDD3800E1
:10690000FEF7DEFD089009913800FEF7DCFD0E90E1
:106910000F913800FEF756FB03B20E980F991093B3
:106920000FF02CFF06B2089809990FF027FF0223F9
:1069300002930422A35E01B201930022A35E2448C5
:1069400000933200109B02F02DFC002803D001219F
:106950003800FEF73FFB01350834CAE700250A9CE2
:10696000C022059B12019B580893AB4236DD3800CC
:10697000FEF7A6FD089009913800FEF7A4FD0E90E1
:106980000F913800FEF71EFB03B20E980F9910937B
:106990000FF0F4FE06B2089809990FF0EFFE0223FB
:1069A00002930422A35E01B201930022A35E084871
:1069B00000933200109B02F0F5FB002803D0012168
:1069C0003800FEF707FB01350834C9E7381B000023
:1069D00061270020F81C0000D81E00000026059B3F
:1069E0000C9A9B580893B3427BDDF2239B007343C0
:1069F000AF4A0893059B9C18089BE4182000FEF7FB
:106A00009BFB00286BD13800FEF75AFD0E900F91CA
:106A10003800FEF758FD109011913800FEF7D2FAB9
:106A200005002000FEF74CFD129013912000FEF7A8
:106A30004AFD149015912000FEF778FB16901098EF
:106A400011990FF09BFE03B20E980F9910930FF05F
:106A500095FE03B25822149815990E936B469B1815
:106A600000229B5E2DB202930FF088FE00B20190CF
:106A7000129813990FF082FE00B200902B00109A2A
:106A80000E998C4802F08EFB002828D00121380096
:106A9000FEF7A0FA01212000FEF755FB200000229E
:106AA000854BFEF707FD0022834B2000FEF705FD16
:106AB000059B824A9C18089B814AE418059B9D18F7
:106AC000089BED18200000227E4BFEF7F3FC20000F
:106AD00000227C4B6034FEF7F0FCAC42F2D1013670
:106AE0007DE7199B60379F4200D000E7059BE133AB
:106AF000FF331293002308930C9A059B9B58089A26
:106B00000E93934200DCCAE0F2239B0053436B498F
:106B1000069A0B9D5418E41800230E93189A059BAF
:106B20009B580E9A1093934230DD2000FEF7C8FC6C
:106B3000109011912000FEF7C6FC060020000F0007
:106B4000FEF740FA390003B2300014930FF016FE3E
:106B500006B2109811990FF011FE0223029304223D
:106B6000AB5E01B201930022AB5E5248009332004B
:106B7000149B02F017FB002803D001212000FEF730
:106B800029FA0E9B083501330E93C7E700230A9DAF
:106B90000E93C022059B12019B580E9A1093200061
:106BA00093422FDDFEF78CFC109011912000FEF730
:106BB0008AFC060020000F00FEF704FA390003B239
:106BC000300014930FF0DAFD06B2109811990FF00F
:106BD000D5FD022302930422AB5E01B20193002291
:106BE000AB5E344800933200149B02F0DBFA0028BD
:106BF00003D001212000FEF7EDF90E9B083501338B
:106C00000E93C6E7FEF75CFC0E900F912000FEF796
:106C10005AFC109011912000FEF7D4F92A4A059BE6
:106C200006009D182800FEF74BFC149015912800D3
:106C3000FEF749FC169017912800FEF777FA070037
:106C4000109811990FF09AFD03B20E980F991093B6
:106C50000FF094FD3FB203B2169817990E93029766
:106C60000FF08CFD00B20190149815990FF086FD7D
:106C700036B200B200903300109A0E990D4802F01F
:106C800091FA002807D001212000FEF7A3F9012185
:106C90002800FEF758FA089B013308932CE7069B5F
:106CA000129A60330693934200D023E71BB0F0BDE5
:106CB000080C000061270020000034C0C80D00004F
:106CC000A80F0000000024C0381B000070B50400AD
:106CD000104B08330360104BC018FFF719F80F4B27
:106CE000E018FEF7FFFF0E4BE018FEF7E5FF0D4B37
:106CF000E018FEF707FC0C4BE6180C4BE518AE420B
:106D000006D00B4BED182B6828001B689847F6E758
:106D1000200070BDBC820100781F0000281F000009
:106D2000D81E0000381B0000080C0000281B0000C3
:106D300038FCFFFF10B50400FFF7C8FF20000CF07F
:106D400023FA200010BD000010B5064801F0A2FB98
:106D50000022054B05491A700548013207F0EAFA8E
:106D600010BDC046302600209C0100208CAB0100E5
:106D7000C026002030B589B003AC2200124B23CBD3
:106D800023C203CB03C20023220000930F49053323
:106D90000F4806F095FE800003590E4A05209342E5
:106DA00004D00D48181A42425041C0B20B4A9342D7
:106DB00000D102200A4A934200D10320094A93429B
:106DC00000D1042009B030BDCC820100EC8201006A
:106DD0005A27002045AC01004CAC010051AC010029
:106DE00059AC01005FAC010070B5204E300001F0DD
:106DF000A3F80028F9D01E4C0021200005F02EFC3D
:106E00001C49200005F044FB1021002005F092FBF6
:106E1000194920000BF032FE184920000BF02EFE1D
:106E20000521300002F086F9051E1DD10421300035
:106E300002F080F90028D8D001222900104807F07C
:106E40004BFD2221280005F075FB0E4920000BF0B8
:106E500015FE0D4920000BF011FE0C482900FFF72C
:106E60000FF80B480CF050F9002070BD30260020C0
:106E700040260020FFFF000003830100158301006E
:106E8000C02600202883010037830100E80100208C
:106E9000DC05000070B5134D280001F04DF8002806
:106EA000F9D0114C0021200005F0D8FB0F4920003B
:106EB00005F0EEFA0321002005F03CFB0C49200010
:106EC0000BF0DCFD0B4920000BF0D8FD0A49200037
:106ED0000BF0D4FD0521280002F02CF90028DAD0AF
:106EE000002070BD3026002040260020FFFF00005B
:106EF0004E8301005C8301006E83010070B50F4D6D
:106F0000280001F019F80028F9D00D4C00212000CC
:106F100005F0A4FB0B49200005F0BAFA1C2118204B
:106F200005F008FB084920000BF097FD042128001C
:106F300002F000F90028E2D0002070BD30260020C9
:106F400040260020FFFF0000F182010070B50F4DC8
:106F5000280000F0F1FF0028F9D00D4C002120009E
:106F600005F07CFB0B49200005F092FA1C2118204B
:106F700005F0E0FA084920000BF06FFD042128001D
:106F800002F0D8F80028E2D0002070BD30260020A2
:106F900040260020FFFF0000FA82010070B50F4D6F
:106FA000280000F0C9FF0028F9D00D4C0021200076
:106FB00005F054FB0B49200005F06AFA1C21122051
:106FC00005F0B8FA084920000BF058FD062128000A
:106FD00002F0B0F80028E2D070BDC0463026002094
:106FE00040260020FFFF0000E082010070B5104D38
:106FF0002800FEF709FF0F4C0F49220028000FF070
:107000007DFC0E4D0E49280006F054FA0D4E22006C
:10701000310028000FF072FC0B4D0C49280006F0DF
:1070200049FA3100280022000FF068FC70BDC0460C
:10703000E801002000000020CD6C0000A00100202D
:107040008083010011D00000C401002098AB010032
:10705000F7B5314C23680193304D280000F06CFFE8
:107060000028F9D02E4E0021300005F0F7FA2D4906
:10707000300005F00DFA1C210D2005F05BFA2268A6
:10708000294930000BF004FD284F0021380007F09B
:10709000F1FB2368984205DA254B2A222321300090
:1070A00006F064FB0421280002F044F800280CD00C
:1070B0000021380007F0DEFB2168884205DB01393A
:1070C0001C48FEF7DDFE0020FEBD0521280002F071
:1070D00031F8002802D0019B2360F4E70221280048
:1070E00002F028F8002804D02368042B0DDC0133BB
:1070F00023600121280002F01DF80028ACD023688D
:10710000012B05DD013B2360A6E701232360F0E7A7
:1071100005232360A0E7C04614000020302600208D
:1071200040260020FFFF000040830100C026002011
:10713000C4010020E801002010B50A4C200000F036
:10714000FBFE0028F9D0002207481100074B06F08B
:107150000DFB0521200001F0EDFF0028EDD00020FF
:1071600010BDC0463026002040260020A00100208F
:1071700070B5414C200000F0DFFE0028F9D03F4DF3
:10718000280005F084FA0621200001F0D3FF002832
:1071900001D0FFF703FF3A4C2078072867D80DF09D
:1071A00045FC040C393D41354562962040000BF00A
:1071B000ABFFFFF7DFFD207070BD324D2800FEF7FA
:1071C00065FE002802D02800FEF766FE2E4E300035
:1071D000FEF7AEF92800FFF795F82800FEF7B8FF94
:1071E0002800FFF709F83000FEF77EF82800FEF7C8
:1071F0004DFE012802D106232370DDE72800FEF7AB
:1072000045FE0228D8D107232370D5E7FFF720FFDA
:107210002070D1E7FFF790FF2070CDE7FFF7E4FD86
:107220002070C9E7FFF736FE2070C5E7174E002132
:10723000300007F01FFB164D2B68984206D104283A
:1072400004DC421C0021300007F046FB29680429B9
:1072500002DC0C48FEF714FEFFF750FE2B6820708E
:1072600001332B60A8E7FFF771FE2070A4E70949FE
:1072700028000BF003FC9FE730260020402600206A
:107280009C010020E8010020201D0020C0260020D5
:107290001400002030AC0100027C0023120704D54A
:1072A000C36A406A1B1A00D5014B18007047C046DC
:1072B000FFFFFF7F10B5103007F06CFD10BD10B55B
:1072C000103007F087FC10BD13B56B46DC1D103085
:1072D0000122210007F0C6FB012801D1207816BD4C
:1072E00001204042FBE710B5103007F001FF10BD50
:1072F00007B56B46D971073310300122190007F02A
:10730000F7FE0EBD10B5002304008AB001A80A00E4
:107310000380210007F08FFD0AB010BD03000A00B2
:1073200070B51033103270CA70C370CA70C370CA9F
:1073300070C34B6843608B688360CB68C3600B008D
:1073400034331A78030034331A700B0035331A784B
:10735000030035331A708B6B8363CB6BC3638B1C59
:10736000DA8F831CDA870B1DDA8F031DDA874B6CEB
:1073700043648B6C836470BD73B5050038350400BD
:10738000280005F089F90600280005F097F9002289
:1073900023000190009628001033110002F0A4FB96
:1073A00073BD70B50BF080FE04000BF07DFE44430E
:1073B00001200CF059F8050002200CF055F8684344
:1073C00060400BF015FE70BD70470000F0B54B4DEE
:1073D0004B4C9FB000900191200029000292FFF7D2
:1073E00091FF031E06D111A803802A00013321005A
:1073F00007F0E0FD0023FA2704AA414E138205930B
:10740000404BBF004049300006970493FFF77AFFD6
:10741000041E25D111AD3B4B2882139715AF3A4A74
:107420003100129011933800384B07F004FD08AB7F
:1074300007CF07C307CF07C307CF07C3129B21009E
:107440000593AB6808A80693EB680393079307F0CE
:10745000F1FB200004A906F041FF08A807F0E4FCB6
:10746000FA23002511AE9B0035821393254B15ACF2
:10747000254A234911932000244B129507F0DBFC89
:1074800008AB07CC07C307CC07C307CC07C3129BC5
:1074900029000593B36808A80693F368039307933C
:1074A00007F0C8FB04A806F011FF0199431C029ADB
:1074B000009806F0B5FE0400290008A807F0BAFB02
:1074C000631C12D104A9280006F008FF2B00029AC1
:1074D0000199009806F0A4FE0400431C05D108A8F9
:1074E00007F0A2FC28001FB0F0BD04A9200006F0A0
:1074F000F5FE08A807F098FC0120F4E7FCAD0100B8
:10750000EC25002070AC010000AE0100024200003A
:1075100010B504000021383004F07EFF20002A302E
:10752000FF3001F07DFD10BD0300F0B507003433DE
:107530009BB01800039309F04DF9A94B3C000022C1
:107540009B5E38340993A74B200000229B5E0025E8
:107550000A93A54B1B880B93A44B1B880C93A44B3D
:107560001B780D93A34B1B780E93A34B1B680F93B3
:10757000A24B1B781093A24B1B78119302F0E6F9F3
:1075800003211490200002F0B3F9200005F0B4F8B4
:107590009C491290200005F0A9F83B004533FF33C9
:1075A0001800069301F082FA069801F083F9EBB215
:1075B0000698059301F076FA934BEB5C834203D275
:1075C0000135052DF3D105959049200004F060FFA9
:1075D00020233422009300218033200002F0BEF8E3
:1075E0008B49200004F054FF02232000009338222E
:1075F000884B002103F030FE039809F001F90028C0
:1076000047D18249200004F043FF10233C2200931D
:107610003221063B200002F0A1F80021200004F0F6
:1076200037FF1C25002202261100A0232000009510
:1076300002F094F87649200004F02AFF002120008F
:107640000096754B042203F007FE7049200004F0F9
:107650001FFF200005F020F82AB203000096002149
:107660002000043502F07AF8342DF2D102262235BA
:10767000200005F023F8A84211DD200005F00CF8E9
:107680002AB2030000960021200002F067F80435BA
:10769000EEE7039809F098F80028B2D1BDE700237F
:1076A000012508931393023304930BF0F7FC139B0B
:1076B000C01A2828F9D9039809F03CF80BF0EEFC21
:1076C0001390380001F0F0FC089B069801330893F2
:1076D00001F0ECF90721380001F034FD002800D05A
:1076E000CBE20521380001F02DFD002800D0C4E2D6
:1076F0000621380001F026FD002800D0BDE204225A
:107700000221380001F030FD002819D104220121A6
:10771000380001F029FD002806D0049B002B03DD72
:107720000500013B5BB20493049B042B00D9D0E01D
:1077300018000DF085F90D0073009F01AA01FD01ED
:10774000049B032BE2DC01335BB204930500DDE70D
:1077500004220321380001F007FD002806D0059B14
:10776000032B03D805000133DBB20593042200216B
:10777000380001F0F9FC002806D0059B002B03D04F
:107780000500013BDBB205930421380001F0DAFC6F
:10779000002812D0059B5A4253419B0005931A4B77
:1077A000059A0698995C01F055F93800059A04216C
:1077B000DC3007F091F8012501E0002DEFD1002623
:1077C000069801F044F9864200DB82E0FF23B1B263
:1077D00000931A000698013601F016F9F6B2EFE7A9
:1077E000B2290020B4290020AC290020B0290020B3
:1077F000BC29002037000020A8290020BE29002035
:10780000A4290020A8B20100C0B001006852000005
:10781000FFFF0000C5B0010076AE01000421380072
:1078200001F090FC079000281FD0039808F0CCFFCF
:107830003E000500DC360398002D00D1D6E008F0AC
:10784000BDFF00220121300007F046F8039808F040
:10785000D7FF0790002808D10621039808F0C6FF3B
:1078600006220799300007F037F804220321380078
:1078700001F07AFC061E21D0039808F0C1FF07280A
:107880001CD803983D0008F09FFFDC35002800D18C
:10789000C5E0039808F092FF01210022280007F0BC
:1078A0001BF80121039808F0A1FF039808F0A8FF36
:1078B00000210200280007F00FF835000422002103
:1078C000380001F051FC002800D0B1E0002D00D0BC
:1078D000CBE00723089A1340032B00DD0DE2BE49DD
:1078E000200004F0D5FD049B1E2659018BB207939E
:1078F0006B461C21595E202334220093200003F0A4
:1079000039FC079B0096591C09B233003522200030
:1079100003F030FC002D00D104E2AF49200004F058
:10792000B7FD04220121380001F01EFC002812D00E
:10793000049B34225D1C20236D01ADB229B200935B
:107940002000013503F016FC29B2009633003522E1
:10795000200003F00FFC04220221380001F004FC97
:10796000002812D0049B34225D1E20236D01ADB28D
:1079700029B20093200003F0FDFB1E23013529B23C
:1079800000933522200003F0F5FB049B012B00D06F
:10799000E9E1039808F034FF002800D0AFE18E49F8
:1079A000200004F075FD10233C2200933221063B99
:1079B000200001F0D3FE039808F022FF002800D138
:1079C000C8E18649200004F063FD039808F018FF21
:1079D000542207998000121A1E3100B2009012B290
:1079E00009B20223200003F0C5FBB3E108F008FF51
:1079F000002809D0039808F0DBFE012230001100B6
:107A000006F06AFF079D30E70621039808F0EEFEB6
:107A100029000622300006F05FFF079D25E7039846
:107A200008F0EEFE0130C1B2039808F0DFFE3CE73B
:107A3000039808F0E5FE002800D147E7039808F016
:107A4000C3FE061E00D041E7039808F0D9FE0138B6
:107A5000C1B2039808F0CAFE039808F0D1FE0200F4
:107A600038003100DC3006F037FF039808F04EFE96
:107A700001252EE70421380001F05CFB002800D12D
:107A800027E73800FFF744FD23E70421380001F021
:107A900059FB0790002800D11BE75049200004F053
:107AA000F7FC2023342200936021200003F062FBC6
:107AB0001E23352200936121200016AD03F05AFBEE
:107AC0000E22474928000EF08BFF052204212800D2
:107AD0004226FFF77BFCFF3600281AD1B8554149F2
:107AE000200004F0D5FC20233422009360212000E4
:107AF00003F040FB1E23352200936121200003F098
:107B000039FBC82040000BF0FFFA0123079DBB554D
:107B1000DFE642233800AB7229000E3310302B739E
:107B200005F0C6FB0023BB559842D8D02E49D7E7B5
:107B30000421380001F006FB002844D0274920002A
:107B400004F0A6FC2023342200938021200003F0BF
:107B500011FB1E23352200938121200016AD03F076
:107B600009FB0E221E4928000EF03AFF05220421CF
:107B70002800FFF72BFC192207900421380001F0A0
:107B8000EBFA4226079B1590FF36002B2ED16B4651
:107B90001B7FBB551349200004F07AFC20233422BC
:107BA00000938021200003F0E5FA1E233522009384
:107BB0008121200003F0DEFAC820012540000BF0EF
:107BC000A3FABD5585E619220421380001F0C4FA54
:107BD0000028B3D17DE6C04668520000FFFF0000D8
:107BE00056AE0100E4D8000068860000159B002B0B
:107BF00000D07CE0FA204233AB720E332B73093392
:107C0000FF33F95C80000CF0AFFF032358435E3371
:107C1000FF33F852380016A9103005F036FB002368
:107C2000BB559842B6D00122514B1A70159B002BC0
:107C30000BD00A200BF068FA380001F035FA042165
:107C4000380001F07FFA0028F3D04A49200004F000
:107C50001FFC2023342200938021200003F08AFAA5
:107C60001E23352200938121200003F083FAC820CF
:107C700040000BF049FA0123BB55039808F0B0FD12
:107C80006A463D4B928C34211A806A463B4B128DDA
:107C900020001A806A463A4B928D1A806A46394B08
:107CA000128E1A806A465218374B127804311A70B5
:107CB0006A465218354B127808311A700F9A344BB5
:107CC0001A606A465218334B127804311A706A46A9
:107CD0005218314B127814991A7001F009FE12995A
:107CE000200004F0FDFCFFF76FFB1BB0F0BDB023DC
:107CF00001225B005242FA528CE72849F0E50398D2
:107D000008F062FD002800D049E62000244904F074
:107D1000BFFB0223382200933021224B200003F0C6
:107D20009BFA48E6049B002B19D1059B002B11D030
:107D30001B49200004F0ACFB5422059B0799DB0093
:107D4000D21A1E311BB2009312B209B202232000D4
:107D500003F010FA069800F0ADFD0025A5E4049BA1
:107D6000012BF7D127E6049B002BDED0F2E7C046BB
:107D70002826002068860000B2290020B4290020AF
:107D8000AC290020B0290020BC29002037000020A9
:107D9000A8290020BE290020A429002068CC0000CA
:107DA000FFFF0000DCAE0100F0B5B0256D00435FC1
:107DB0008FB004005A1C01D0013B4353072120001F
:107DC00001F0C0F9002808D1635F002B00D099E0D2
:107DD0004D4B1B78002B00D194E04B4B1B78002BB4
:107DE00000D18CE0494B260000229B5E383602937E
:107DF000474B300000229B5E25000393454B3435F2
:107E00001B8827000493444B45371B88FF37059395
:107E1000424B1B780693424B1B780793414B1B68E0
:107E20000893414B1B780993404B1B780A9301F050
:107E30008DFD03210C90300001F05AFD300004F05C
:107E40005BFC3B490B90300004F050FC280008F02C
:107E5000C1FC280008F0B8FC0D90280008F0A8FC30
:107E60002300103318003349019304F06DFB3800F0
:107E700000F01CFE380000F01DFD0121019805F006
:107E80000FFA0023204A20001370FFF775FA0D9BAC
:107E9000002B02D1280008F091FC280008F0A0FC7B
:107EA0006A461A4B128924211A806A46184B928915
:107EB00030001A806A46174B128A1A806A46164B9F
:107EC000928A1A806A46154B127E1A706A46144BC3
:107ED000127F1A70134B089A1A606A465218124B96
:107EE000127804311A706A465218104B12780C99A5
:107EF0001A7001F0FDFC0B99300004F0F1FB20003A
:107F0000FFF712FB0FB0F0BD28260020B229002099
:107F1000B4290020AC290020B0290020BC29002071
:107F200037000020A8290020BE290020A429002015
:107F3000A8B20100D8B30100F0B505008BB0FC3544
:107F40002E6E04000BF0AAF8AC27301AA0267F0092
:107F5000E35D760098421BD9A35D0393002B17D0F5
:107F60000BF09CF8E35D1818AB6B28660133AB632C
:107F70000023A3550BF098F82864200001F094F832
:107F800020002C30FF3005F0A3FE03980BB0F0BDAD
:107F9000A35D0393002B7AD12000FFF705FF20009B
:107FA0002C30FF3005F0F8FF20002B30FF3005F0BB
:107FB000D1FC20002700343008F0BCFB6C372000D7
:107FC000FFF7DAF9380004F079FBC3B23800069302
:107FD00004F062FBC3B205932E4B039E0493069AF2
:107FE000F3B29A4228D9002523004533FF33059A7E
:107FF0000793EBB29A4218D929B232B2380005F091
:108000006BF906F044F90304010209AA090E1B0EDC
:10801000107091705370C2B20498405D00910100DD
:10802000079800F0F1FC0135DEE7059A049B9446C1
:10803000634401360493D2E726002500164B4536EB
:108040001B78FF36FC35002B0FD0A86B0A210CF0F3
:1080500087FD0023042218008A4258414242D2B2CE
:1080600000930721300000F0CFFC300000F022FC2C
:10807000300000F01BFD0BF017F82B6CC01AE86302
:1080800003F062F8A02301225B00E2547DE70023A5
:1080900003937AE73FB101002826002073B501253C
:1080A000040001950095002340225021103005F076
:1080B0001BFA20001F221E21383001F0DBF82000BF
:1080C000019500950023042202216C3005F00CFA82
:1080D000220000232600FA201B49A0321380C43658
:1080E000103A800011605360906033707370536475
:1080F0005C321380103A116021001131FF3153605E
:1081000090600B704B7053642C22FF32A3542200FA
:108110002C32FF32D5705370937013715371422219
:108120002000FF32A3545219A35445301D3A523354
:10813000FF3A0821FF3000F051FCB02301225B0020
:1081400052422000E25276BD70AC01000B4B10B5DC
:108150001868002810D04223FF33C35C002B0BD0DB
:10816000A0235B00C35C002B04D10300FC331B6C19
:10817000002B01D0FFF7E0FE10BDC0462C260020EA
:10818000002264200C4B0D4910B55A52243158542A
:108190000B490C485A540C490C4C58500C49DA7194
:1081A0005A5401395A542000FFF778FF094A0A4906
:1081B00020000EF0A3FB10BDB02100203C04000005
:1081C0006A04000000093D006C0400003026002015
:1081D00071040000000000203D820000F0B58DB069
:1081E0001E0012AB1F7801230C00019300931500B1
:1081F0004E210A2203A805F077F903A804F047FAF4
:10820000022103A80C4B0022494204F0D3FD0A23AB
:10821000B8B243433200019329004E234243414305
:1082200058432568009003AB2000AD6BA84703A816
:1082300004F0EEFE0DB0F0BD76AE010010B5040006
:108240004530FF3000F0D2FA20006C3004F0E0FE40
:108250002000054B3830A36303F05CFB2000103096
:1082600004F0D6FE200010BDCCB10100F0B5040032
:108270008FB0214905A805F01DF92000FFF75CFE2D
:108280002000002234301D4908F0F4F9182303932C
:108290002000FFF751FE0028FAD06B4627001E7B16
:1082A0001037751EEDB26BB23800039304F0EFF98E
:1082B0000122134B1A7000230A2D01D80B3E73B212
:1082C000012239000092200092182600FFF786FF55
:1082D00000226C3605AB1100300005F047FA002D86
:1082E000D6D1300004F0D3F92000FFF725FE05A811
:1082F00004F08EFE0FB0F0BDEAAE010064AE0100E6
:10830000BC290020F0B505000127837E93B00793B8
:10831000838B5A4E0493C38B31000593584B5948B5
:108320001F702C00FEF7EEFF10340390002806D0DB
:1083300000973300059A0499200004F037FF524952
:1083400009A805F0B7F82800FFF7F6FD0028FAD0D5
:10835000039B2000002B67D004F0DCFF2B000722DA
:10836000FC339B6B00211340032B00D947492000AD
:1083700004F08EF8200004F08FF90600200004F0CD
:108380009DF90022009033001100200002F0F2FE5F
:108390002B000722FC339B6B1340032B68D9012170
:1083A00009A804F0EDFF200004F076F9503806002B
:1083B000701E864109A804F06FF901367043C3B2FC
:1083C00009A8069304F07AF94643200004F064F902
:1083D000069BF6B2C71A200004F070F96B46821BA8
:1083E00036B201961820185EFFB239B20090D2B2B0
:1083F000200009AB03F058F80421280000F09AFE91
:108400000028A0D02800343008F080F90123059A14
:10841000019300930499079B200004F0C9FF09A869
:1084200004F0F6FD13B0F0BD04F031F92000174957
:1084300004F02EF8092150230F22114E30784143C9
:108440004343424300912000039902F0DEFE2000E6
:108450000F4904F01DF8112130784143400004F029
:1084600069F829006331FF3120000AF007FB75E746
:10847000002109A804F084FF95E7C04618000020F9
:10848000BC290020EC25002088AC010068CC00004D
:10849000FFFF0000F0B50226BC4A9FB0137804002D
:1084A000B3431370BA4BBB49186003006333FF3307
:1084B0001022180003930EF093FAB9230027282204
:1084C0005B00E7541A3BE254183B273AE254FE3271
:1084D0000E3BE25423004533FF331800049300F0B1
:1084E00095F9049800F0E2FA200000F0CDFD20009C
:1084F00000F0DAFD3A000521200000F035FE2300EF
:10850000250038330690079018001035059300F0C9
:10851000FBFF0321059801F0EBF93900280003F077
:108520007BFF01229C4B9D4928001A7003F0B0FF8D
:10853000994B32001B782900009320003300FFF78D
:108540004DFE3A009649280003F0D8FF280004F0B9
:10855000B5F80600280003F005FC8F4B197841435D
:10856000711A380009B203F0E5FF8E4928000AF0BD
:1085700074FA2000FEF700FF09AA177157710A9AD2
:10858000894F8A4B00928A491A223800099307F0D2
:108590009EFC002800D1CFE0864E8748376006F069
:1085A00043FC0121300007F01BFB011E00D1BDE0A0
:1085B000804F814E3900300006F03AFA002800D191
:1085C000BAE07E4BFA5C70231A4200D1B4E07C4BD7
:1085D00001221E60A1235B00E2547A490022280098
:1085E00003F08CFF784928000AF048FA2000FEF7D3
:1085F000C3FE200000F058FD069B002B05D11A0099
:108600000521200000F0B0FD0790002263492800FA
:1086100003F074FF0021280003F0FEFE664F03996B
:108620003800FEF76FFE031E06D10BA80380039AE5
:108630000133390006F0BEFC00230BAE33806333F8
:10864000FF33E35C2F2B00D089E06423FF33E35C2E
:10865000002B00D083E0380006F0E6FB55493800D7
:1086600006F0E6F9039A59490BA805F04BFE2000E5
:10867000260027000BA99030FEF750FEDC36544A46
:1086800054490BA805F03EFE0BA93000FEF746FE4C
:10869000343720210623504A300005F056FE3800BA
:1086A00008F06EFA0121300006F0E4F8002802D04C
:1086B000380008F07DF80021300006F0DBF8C1B288
:1086C000380008F093F8079B002B07D001223000F8
:1086D000110006F001F9380008F06AF803213000B3
:1086E00006F0C8F805F0D6FA0421300006F0C2F80A
:1086F0003A4B195C049800F0ADF9059802F034FD8E
:10870000374B1B78DB0705D52000FFF7AFFD2000B6
:10871000FFF7F8FD2000FEF744FE280003F0B7FF46
:1087200042230122FF33E2541FB0F0BD300007F0B6
:1087300057FA002800D03BE7A12300225B00E25457
:108740002800284903F0DAFE274928000AF096F9A4
:108750002000FEF711FE64200AF0D6FC49E7164F10
:108760000023039A3900300006F065FB002800D191
:1087700078E7702332781A4200D173E73B0007CEC6
:1087800007C307CE07C307CE07C36BE7001000403F
:108790002C2600200EAE0100BC290020FFFF0000A7
:1087A00068CC000022AE010010260020001BB7009C
:1087B0001C260020B0210020EC2500203C040000F5
:1087C000D4290020688600002EAE01003AAE0100D8
:1087D00043AE010048AE010078B00100C0B0010016
:1087E00038040040E4D8000032AE010010B50400A7
:1087F0008068002801D00EF0CFF80620205600280F
:1088000002DB00210AF088FF200010BD10B5040033
:1088100006202056002807DB01210AF07DFF0620F4
:10882000002120560AF0C4FF0123637010BD70B50B
:10883000050080680E00002801D00EF0ADF82B7BFB
:10884000EC7BE41A631E9C4103347443A4B2AC80F5
:1088500020000EF097F8A860002805D02200002123
:108860000EF0C7F86E8070BDA8806880FBE7032219
:10887000F8B58B110D118E101640134015400A40AB
:10888000467382730026FF228A4276418268C47B47
:10889000077BC37305730670002A0AD0E21B5B1BBB
:1088A00051424A4159424B419A4202D04188FFF716
:1088B000BEFFF8BDF8B583680400002B00D16BE063
:1088C0000AF0F2FB2369C01A3128F9D972B60623DF
:1088D00018220121E356314F5343FA185268A588F4
:1088E0009140A2685519501C1678DA5D2C4BD201C4
:1088F0009C462C4B9444D218802367463960C0466E
:10890000C046C046C046C046C046C046C0463342C8
:1089100021D0C046C046C046C046C046C046C0463C
:10892000C046C046C046C046C046C046C046C04617
:10893000C046C046C046C046C04611605B1020D04D
:10894000DBB2C046C046C046C046C046C046C04670
:10895000C046C046D1E71160C046C046C046C046CA
:10896000C046C046C046C046C046C046C046C046D7
:10897000C046C046C046C046C046C046C046C046C7
:10898000DCE762B672B6A84202D206780130B3E7DD
:1089900062B60AF089FB2061F8BDC04664B80100E8
:1089A000184400411444004170B5437804000D00A0
:1089B000002B06D006202056002802DB00210AF0FA
:1089C000ABFE6378A571002B07D0012128000AF0C7
:1089D000A3FE002128000AF0EBFE70BD70B5150063
:1089E000002204000E004270C27182600261190010
:1089F000FFF73DFF31002000FFF719FF290020009D
:108A0000FFF7D2FF200070BDF0B505AC2578448893
:108A10008C4216D9C479002C05D062436343654368
:108A2000120A1B0A2D0AC47B077B8668A74209D15C
:108A3000032461437118047B0A55427B8B54837B6A
:108A4000CD54F0BD8900711800260E55F3E740881B
:108A50007047000070B5866805000A00002E1ED021
:108A60004C1CC379E4B2A34219D00020013BD9B217
:108A7000814205D0FF2A0ED109480CF075F880B26A
:108A80000023A9889AB2914208D9F25C424312129B
:108A9000F2540133F5E720020138EEE7EC7170BDC6
:108AA000FFFF0000C0790138C0B27047836810B57D
:108AB000002B04D08288002118000DF09AFF10BD11
:108AC000094B1868002809D1EFF310820749002AE2
:108AD00008D172B6BFF35F8F01320A701A68013293
:108AE0001A6070470870F9E73829002034290020FF
:108AF000084B1A68002A0CD01A68013A1A601B68E1
:108B0000002B06D1044B1B78002B02D0BFF35F8FE4
:108B100062B670473829002034290020FF23002145
:108B200010B504000370FC3B41708170C17001718D
:108B300043710C2208300DF05CFF200010BD0000D6
:108B400001220B0010B5134008D00D4B1A700423FE
:108B500043708368002B00D0984710BD0222114259
:108B600004D007490A704370C368F3E7042319422D
:108B7000F3D0034A1370033343700369EAE7C04636
:108B80004E48004110B5FFF79BFF0C4B1B8C1B0799
:108B90001B0F0B2B0FD80A4A9900885800280AD0BF
:108BA0000F2408490A78A24313430B70064B197827
:108BB000C9B2FFF7C5FFFFF79BFF10BD004800419A
:108BC0003C2900203F4800414E480041F8B50023B1
:108BD0000278050018000B2A77D93C4E2B702B78B1
:108BE0000B2B07D801229A403168114204D001337F
:108BF0002B70F4E7012068E0FFF762FF3768344C20
:108C0000002F2BD12022334B334859690A435A6134
:108C10001022D9690A43DA6102222388390093437A
:108C200023802388013A134323802C4B6063BF3297
:108C3000A3630DF0DEFEC022390028480DF0D9FEF6
:108C40004022C120264B80002380264B26491A60F3
:108C50001A581140C02212040A431A5001231A0064
:108C6000297830688A40024332600F261F4A880004
:108C700085501F4831400278B2430A4302700220F7
:108C80001C4A1178814311701178194311702978A9
:108C900022698B409A43226160223F21636C934397
:108CA00063642A79636C0A40134912020B40032162
:108CB000134363646A79636C0A40104992050B4060
:108CC00013436364FFF714FF0020F8BD3029002030
:108CD000004800410004004070280020B027002018
:108CE000020F000000E100E0FFFF00FF3C29002030
:108CF0003F48004140480041FFC0FFFFFFFF3FFFEA
:108D000070B50400FFF7DCFE63785BB21D00062B34
:108D100030D0217802250B292CD8A3780135002BDF
:108D200028D0164B0A019B185B88002B22D0A36821
:108D30005A1E9341E268DBB2002A01D0022213439B
:108D40002269002A01D004221343062262700F24F4
:108D50000B48214002780025A2430A430270094AC9
:108D6000137007225340084A13700223074A1178F0
:108D70000B431370FFF7BCFE280070BD7028002065
:108D80003F4800414D4800414C48004140480041A7
:108D9000023292001150704770B5050029710378B6
:108DA0000C000B2B14D8FFF78BFE29780F250948F0
:108DB00029400378084AAB430B433F210370536CAF
:108DC0000C40064924020B401C435464FFF790FEFC
:108DD00070BDC0463F48004100480041FFC0FFFF52
:108DE00070B50500697103780C000B2B14D8FFF7E0
:108DF00067FE29780F25094829400378084AAB43C4
:108E00000B4303210370536C0C400649A4050B402F
:108E10001C435464FFF76CFE70BDC0463F480041E0
:108E200000480041FFFF3FFFF0B587B001930CAB56
:108E30001E780DAB1B78050002930EAB1B780078F3
:108E4000039310AB049105921F780B2802D90020E0
:108E500007B0F0BD6B78062BF9D0AB78002B00D1B2
:108E600078E0102108000DF083FD0028EFD02B786A
:108E70003A4A1B019B181A00D168002904D0D16816
:108E80008B4201D0D268F7E7D06001230221AB709A
:108E90009E4203D04918022E00D0190006240288F1
:108EA0001A4302800288A243028002881234A2433D
:108EB0000280153C02882640294C36022240164387
:108EC0000680029E0288274C1E402240B6021643AE
:108ED0000680039E0288244C1E402240F602164360
:108EE00006800288214E3B4032401B031343072279
:108EF00003800F9B1A4003885203DB04DB0C1343EF
:108F000003806B469B884380049B4360029B002B3D
:108F100008D0019B42684B43002F01D00F9CA34017
:108F2000D3184360059B8360039B002B08D0019CF2
:108F30004C438168002F01D10F9B9C400C19846029
:108F40000023EA789A4203D02B78044A1B019B182D
:108F5000C3607DE7014B0001C01896E77028002030
:108F6000FFFCFFFFFFFBFFFFFFF7FFFFFFEFFFFF30
:108F700030B50C880220A405A40F012C03D00018E2
:108F8000022C00D00338039C002C01D0A4B24C80EA
:108F9000002A0ED04A600A8852050AD50A88D204EF
:108FA00019D54A880C884243640BA2404D68521977
:108FB0004A60002B0ED08B600B881B050AD50B88EE
:108FC000DB040DD44B880A885843520B90408C68C0
:108FD0000019886030BD4A884C6842431219E7E79F
:108FE0004A888B685043C018F3E700008378C1704B
:108FF000002B11D00378094A1B019B181A00D06876
:10900000002804D0D068834201D0D268F7E700205E
:10901000814200D01800D0607047C0467028002000
:1090200010B5024B1B68984710BDC046F43F0000C6
:10903000064A074B126810B59A4202D8FFF7F0FFB4
:1090400010BD044B08001B689847F9E7FC3F00007F
:1090500001000100E83F0000044B10B51868012131
:109060002A30FF30FFF7E4FF10BDC0462C26002059
:10907000044B10B5186802212A30FF30FFF7D8FFE3
:1090800010BDC0462C26002010B5064807F0BAFFD8
:10909000012119200AF040FB012119200AF088FB68
:1090A00010BDC04688320020F7B500266B461D4F24
:1090B0005E711E71019A04001B49380007F0CAFF57
:1090C000310019200AF074FB1023013BFDD101216E
:1090D000380007F0EFFF0121050019200AF068FBB6
:1090E000380007F0D3FF01203100104E2F000F4150
:1090F0004A00A35A07420CD10D4FBB4202D801339C
:10910000A35202E0B34200D1A05201310829EDD1AF
:10911000F7BD002BF9D0B34201D10023F0E70123C2
:109120005B42EDE788320020001BB700FFFF000024
:10913000FDFF00004900085A013843425841C0B2BF
:10914000704700004900034B085AC0184342584179
:10915000C0B270470100FFFF49000B5A01329A1A52
:1091600050425041C0B27047490010B5085A012A18
:1091700008D800230138094A80B282425B41DBB241
:10918000180010BD064900238842F9D011000BF0E9
:10919000E7FC8BB2013B59424B41F0E7FDFF000079
:1091A000FFFF000070B504A80025455F05A8002456
:1091B000045F06A80026805FDE179B197340C61760
:1091C0008019704000B2491B121B1BB21B18494387
:1091D00052435B4389180120994200DB0020C0B252
:1091E00070BD0000024A1368022BFCD97047C046CC
:1091F0002C00002010B50400034B0833036002F07C
:1092000089FB200010BDC046C4B1010010B50400A8
:10921000FFF7F0FF200009F0B7FF200010BD0000AD
:10922000064B1A6801321A601B68012B05D880238F
:10923000034A9B04516C0B43536470472C0000207D
:109240000048004110B50100014807F033FF10BD90
:1092500088320020054B1B68022B05D88023044A66
:109260009B04516C0B4353647047C0462C00002094
:109270000048004170B504000E0015008021A022B6
:1092800003F07AF9044BE662083323600023256378
:109290002000237470BDC046C4B10100104B10B54E
:1092A000C3610362802380221B040363D2030D4B3E
:1092B000C262D96F04000A43DA67016BDA6F0A48A9
:1092C0000A43DA6707F09EFE084B094AE16A1A6012
:1092D00000221A715A71E26913688B43136010BD42
:1092E0009044004104440041883200207C29002041
:1092F00000366E0173B5174C2368002BFCD0164E58
:10930000164D5200009200230A0028003168FFF732
:109310002FFEFFF7D5FB23681148013B23600F2484
:1093200003782A78A34322401343037080230D4916
:109330009B044A6C13434B640B4B1C78FFF7D8FB20
:109340003368A407DB68E40F336002D12800FFF71D
:10935000D7FC73BD2C000020782900208429002030
:109360003F4800410048004140480041026A016B0B
:1093700013680B431360C269C16A13688B4313609F
:109380007047026A016B13688B431360C269C16A3C
:1093900013688B4313607047C269C16A13680B433B
:1093A0001360704770B505000E00094C094B200092
:1093B00006CB07F04FFE2800FFF7E3FF3000FFF772
:1093C00041FF2800FFF7E8FF200007F05FFE70BDB7
:1093D000883200207C2900204B1E994110B5203195
:1093E000FFF7E0FF10BD000070B505000E00094C4E
:1093F000094B200006CB07F02DFE2800FFF7B6FF33
:109400003000FFF71FFF2800FFF7C6FF200007F01E
:109410003DFE70BD883200207C290020F7B5040095
:109420000F001E002A2108AB1D780192FFF7BAFF3A
:1094300020000021FFF7D8FF39002000FFF7D4FFFC
:1094400020000021FFF7D0FF31002000FFF7CCFF04
:1094500020002B21FFF7A6FF20000021FFF7C4FF0B
:1094600001992000FFF7C0FF20000021FFF7BCFF9B
:1094700029002000FFF7B8FF2C212000FFF792FF02
:10948000F7BD00000023F0B50D0085B002AA1C490D
:10949000537113710600039A1A48029107F0DAFD1E
:1094A0002F786C1C013FFFB23000FF2F20D0FFF758
:1094B00068FF2078FFF7C6FEA51C63787F24300084
:1094C0000193FFF753FF019B1C402C19A54204D0C8
:1094D0002878FFF7B7FE0135F8E76B461B792C00BB
:1094E0005BB2002BDEDA2878013409F00DFED9E7F3
:1094F000FFF752FF034807F0C9FD05B0F0BDC046B5
:10950000001BB70088320020F0B587B00400FFF7D9
:10951000C5FE2B4B1B785B0603D42A492000FFF7BE
:10952000B1FF20002849FFF7ADFF20003621FFF7EB
:1095300039FF012620000024C021FFF755FF234DED
:109540000A212800FFF728FC28000221FFF748FC29
:1095500001212800FFF74AFD2800FFF737FB230011
:10956000210004940394029401960094184A280060
:10957000FFF75AFC1822174F210038600388134365
:109580000380134A230004940394029401960094E8
:109590002800FFF749FC1822786003880E4913431E
:1095A00003803A680D4B28001A603200FFF7F0FB89
:1095B00002220B492800FFF7EBFB07B0F0BDC046C5
:1095C00038040040BCB1010053B1010084290020DF
:1095D000281800426C2900202192000078290020E0
:1095E00055920000F0B585B002AF3D8C94466E00F8
:1095F0003200040068460832D208D200821A95462A
:1096000002AA7A6000223B60B24206D03B68985AB8
:109610007B6840BA98520232F6E76346C9B2DAB2C2
:10962000501C4B1E5B19C0B20090DBB22000FFF74C
:10963000F5FE0C4E0C4B300006CB07F00BFD200066
:10964000FFF794FE2A0079682000FFF753FEFFF72A
:10965000C9FD2000FFF7A0FE300007F017FDBD4652
:10966000F7BDC046883200207C29002073B5040075
:1096700000292ADB0C20235E8B4226DD002A24DB16
:109680000E20235E934220DDD2B2C9B2501C4B1C87
:10969000C0B2DBB200902000FFF7C0FE0B4D0C4BB8
:1096A000280006CB07F0D6FC2000FFF75FFE094E2E
:1096B0003088000AFFF7C6FD3078FFF7C3FD2000B1
:1096C000FFF76AFE280007F0E1FC73BD8832002036
:1096D0007C290020AC290020F0B505001C000C20DE
:1096E0002B5E85B08B4231DD0E202B5E93422DDD4B
:1096F0001019984201DD9C1A24B2D2B2531E1B19D4
:10970000C9B2DBB2009328000B00FFF787FE104BB5
:10971000104E1B8830001F0ADBB203930E4B06CBA2
:1097200007F098FC2800FFF721FE013C24B2631CDF
:1097300006D03800FFF786FD0398FFF783FDF4E7B6
:109740002800FFF729FE300007F0A0FC05B0F0BDAF
:10975000AC290020883200207C290020F0B585B09B
:109760001F000AAB050000241C5F0C23C05E88426A
:109770003EDD0E26AB5F93423ADDCE19864201DD17
:10978000471A3FB21019984201DD9C1A24B2D2B296
:10979000C9B2501E4B1E0019C0B2DB19DBB20090DB
:1097A0002800FFF73BFE134B13481B881A0ADBB255
:1097B0000393124B029206CB07F04CFC2800FFF7F4
:1097C000D5FD002C0EDD3E00002E08DD0298FFF7CF
:1097D00039FD013E0398FFF735FD36B2F4E7013C51
:1097E00024B2EEE72800FFF7D7FD034807F04EFC50
:1097F00005B0F0BDAC290020883200207C29002073
:10980000F0B505001C000C202B5E85B08B4230DDCE
:109810000E26A85F90422CDD0819984201DD5C1AE3
:1098200024B2C9B24B1ED2B21B19DBB2009228007F
:10983000FFF7F4FD104B114E1B8830001F0ADBB2FE
:1098400003930F4B06CB07F005FC2800FFF78EFDB6
:10985000013C24B2631C06D03800FFF7F3FC0398E8
:10986000FFF7F0FCF4E72800FFF796FD300007F063
:109870000DFC05B0F0BDC046AC29002088320020A8
:109880007C2900205343F0B503251C00DB172B4037
:109890001B19164C0F26256800249B105B0092B202
:1098A0009208C918A3B29A421FD96300CB5A013457
:1098B0001F1137407F007F5B7FBA078047801F0002
:1098C00037407F007F5B7FBA8780C7801F0B1B12EA
:1098D00033407F005B007F5B5B5B7FBA5BBA0781D5
:1098E00047818381C3811030DCE7F0BD3000002068
:1098F00070B504000D003621FFF754FD6574032D8B
:109900000AD828000BF092F802091017C021200095
:10991000FFF76AFD0B4BE36070BDA0212000FFF74D
:1099200063FD094BE360F7E700212000FFF75CFDD2
:10993000044BE360F0E760212000FFF755FD024B88
:10994000E360E9E78000A000A0008000407C704751
:1099500010B50548FFF7E2F8044B054A1A600022EB
:109960005A711A7110BDC046842900207C2900203C
:1099700000093D00F0B51E008DB002AF04001800D4
:109980003A620D0003F0C6FC0C22B35E002B00D13E
:1099900097E00E21725EBA61002A00D191E0B27A9E
:1099A000012A00D090E00C21625E7A629A4200D0D7
:1099B0008AE00E22A35EBA69934200D084E06B462F
:1099C0006A46BB607B6A00255B000833DB08DB006E
:1099D000D21A954602AA3A626A46D31A9D46BA69D5
:1099E00002AB013AD2B27B617B6A00920022013B5A
:1099F000DBB211002000FFF711FD374B374806CBD3
:109A000007F028FB2000FFF7B1FCBB8C3B619B08F3
:109A1000FB60BB699D424ADA032100207A6A6A43EF
:109A2000D3170B409B182E4A9B10126831695B00BC
:109A30009446CB183A6A7B60F96883B2994226D97A
:109A400079684300CB5A0130FB6119110F2319408B
:109A500063464900C95AFB6949BA11800F21194070
:109A600063464900C95AFB6949BA5180190B6346DC
:109A70004900C95AFB6949BA91800F211B120B405A
:109A800061465B005B5A5BBAD3800832D4E73A691F
:109A9000396A2000FFF72EFC124A1368012BFCD90B
:109AA0003B6A7A690135ADB23A627B61B1E7FFF793
:109AB00099FB2000FFF770FC084807F0E7FABB6845
:109AC0009D46BD460BB0F0BD33003A6A2900200028
:109AD00002F05EF8F5E7C0467C29002088320020BD
